S00B000044494F2E737265633D
S11300000C942A000C9434000C9434000C943400A6
S11300100C9434000C9434000C9434000C9434008C
S11300200C9434000C9434000C9434000C9434007C
S11300300C9434000C9434000C9434000C9434006C
S11300400C9434000C9434000C9434000C9434005C
S11300500C94340011241FBECFE5D8E0DEBFCDBF21
S11300600E945A000C94EB000C94000086B381703B
S1130070B099FECFE3E2F4EF3197F1F700C000004E
S1130080089586B382958170B499FECFE3E2F4EFCC
S11300903197F1F700C00000089580B382FB8827F0
S11300A080F98299FECFE3E2F4EF3197F1F700C0D3
S11300B00000089584E084BB85BB84E884BB85BBD1
S11300C088E081BB82BB17BAD4E0C8E00E94360046
S11300D0882369F12FE382E49FE02150804090401F
S11300E0E1F700C0000085B38D2785BB2FE580E9CB
S11300F09FE0215080409040E1F700C0000085B3AC
S1130100805885BB2FE78EED9FE0215080409040C2
S1130110E1F700C0000082B38C2782BB2FE181EAA3
S113012097E0215080409040E1F700C000000E9419
S11301304100882321F182B38C2782BB2FE580E91B
S11301409FE0215080409040E1F700C0000085B35B
S1130150805885BB2FE78EED9FE021508040904072
S1130160E1F700C0000085B38D2785BB2FE181EA4C
S113017097E0215080409040E1F700C000000E94C9
S11301804D00882329F185B3805885BB2FE580E98C
S11301909FE0215080409040E1F700C0000085B30B
S11301A08D2785BB2FE78EED9FE021508040904046
S11301B0E1F700C0000082B38C2782BB2FE181EA03
S11301C097E0215080409040E1F700C000007ECFCE
S10D01D015BA12BA7BCFF894FFCFE2
S9030000FC
